:100000000C9446000C9465000C9465000C946500FB
:100010000C9465000C9465000C9465000C946500CC
:100020000C9465000C9465000C9465000C946500BC
:100030000C9465000C94B5000C9465000C9465005C
:100040000C9465000C9465000C9465000C9465009C
:100050000C9465000C9465000C9465000C9465008C
:100060000C9465000C9465000C9465000C9465007C
:100070000C9465000C9465000C9465000C9465006C
:100080000C9465000C9465000C94650011241FBE4F
:10009000CFEFD0E4DEBFCDBF11E0A0E0B1E0E4E5FA
:1000A000F5E000E00BBF02C007900D92A231B1074E
:1000B000D9F721E0A2E1B1E001C01D92A132B2075F
:1000C000E1F70E94FE010C94A8020C940000CF936B
:1000D000DF93CDB7DEB781E890E02BE0FC01208311
:1000E00088E890E02DE730E0FC01318320838FE643
:1000F00090E022E0FC01208384E890E0FC01118282
:1001000010828091000190910101A0910201B091B3
:1001100003018093130190931401A0931501B093F0
:1001200016018FE590E02FE530E0F901208120688D
:10013000FC0120830000DF91CF910895CF93DF93DE
:10014000CDB7DEB781E890E0FC0110820000DF91BE
:10015000CF910895CF93DF93CDB7DEB781E0809341
:1001600012010000DF91CF9108951F920F9200902D
:100170005F000F92112400905B000F922F933F932A
:100180004F935F936F937F938F939F93AF93BF939F
:10019000EF93FF93CF93DF93CDB7DEB78091130139
:1001A00090911401A0911501B09116010197A10938
:1001B000B1098093130190931401A0931501B0939A
:1001C00016018091130190911401A0911501B09135
:1001D0001601892B8A2B8B2B91F40E94AA00809107
:1001E000000190910101A0910201B091030180935F
:1001F000130190931401A0931501B0931601000010
:10020000DF91CF91FF91EF91BF91AF919F918F912E
:100210007F916F915F914F913F912F910F9000923D
:100220005B000F9000925F000F901F901895CF9386
:10023000DF9300D000D0CDB7DEB769837A838B839C
:100240009C8389819A81AB81BC81809300019093CA
:100250000101A0930201B0930301809100019091EC
:100260000101A0910201B0910301809313019093C9
:100270001401A0931501B093160100000F900F9088
:100280000F900F90DF91CF910895CF93DF9300D01F
:100290001F92CDB7DEB789837B836A8389818A30D9
:1002A00031F48A819B81BC018DE00E94450180EC84
:1002B00090E0FC018081882F90E080729927892B43
:1002C000B1F386EC90E02981FC01208380E090E08E
:1002D0000F900F900F90DF91CF910895CF93DF9300
:1002E000CDB7DEB78091170190911801009719F0F2
:1002F000019759F018C081E08093190181E090E0E6
:1003000090931801809317010EC0809119018430D9
:1003100021F481E08093190105C080911901880FB3
:100320008093190100000000DF91CF910895CF93D1
:10033000DF93CDB7DEB780911B0190911C01813016
:10034000910569F08130910518F0029791F01AC07B
:1003500081E090E090931C0180931B0113C088E022
:1003600080931F0182E090E090931C0180931B0119
:1003700009C010921F0181E090E090931C018093CE
:100380001B0100000000DF91CF910895CF93DF9310
:10039000CDB7DEB780E290E0FC018081809584706B
:1003A0008093200180911D0190911E01009719F00A
:1003B000019741F019C081E090E090931E01809375
:1003C0001D0112C080912001882349F090911901EC
:1003D00080911F01892B806180931A0104C0809154
:1003E000190180931A01000085E290E020911A0122
:1003F000FC0120830000DF91CF910895CF93DF931C
:10040000CDB7DEB760970FB6F894DEBF0FBECDBF95
:1004100081E290E0FC01108282E290E02FEFFC018B
:10042000208384E290E02FEFFC01208385E290E0BE
:10043000FC01108219821A821B821C821D821E827C
:100440001F82188619861A861B861C8681E090E01A
:10045000A0E0B0E08D879E87AF87B88B8D859E85A5
:10046000AF85B889BC01CD010E9417010E946700C9
:10047000109218011092170110921C0110921B018A
:1004800010921E0110921D0189819A81AB81BC815D
:100490008C329140A105B10530F00E946E011982A5
:1004A0001A821B821C828D819E81AF81B885883E15
:1004B0009340A105B10530F00E9497011D821E8274
:1004C0001F82188689859A85AB85BC850297A10510
:1004D000B10530F00E94C60119861A861B861C865B
:1004E0000000809112018823E1F31092120129810A
:1004F0003A814B815C818D859E85AF85B889820F5D
:10050000931FA41FB51F89839A83AB83BC832D815E
:100510003E814F8158858D859E85AF85B889820F34
:10052000931FA41FB51F8D839E83AF83B887298532
:100530003A854B855C858D859E85AF85B889820F10
:10054000931FA41FB51F89879A87AB87BC879CCF51
:04055000F894FFCF4D
:10055400010000000000000200000000450100004E
:02056400000095
:00000001FF
