:100000000C9446000C9465000C9465000C946500FB
:100010000C9465000C9465000C9465000C946500CC
:100020000C9465000C9465000C9465000C946500BC
:100030000C9465000C9492010C9465000C9465007E
:100040000C9465000C9465000C9465000C9465009C
:100050000C9465000C9465000C9465000C9465008C
:100060000C9465000C9465000C9465000C9465007C
:100070000C9465000C9465000C9465000C9465006C
:100080000C9465000C9465000C94650011241FBE4F
:10009000CFEFD0E4DEBFCDBF11E0A0E0B1E0E2E001
:1000A000F8E000E00BBF02C007900D92AC31B10741
:1000B000D9F721E0ACE1B1E001C01D92A334B20751
:1000C000E1F70E9432030C94FF030C940000CF93DD
:1000D000DF9300D01F92CDB7DEB789837B836A831D
:1000E00089818A3031F48A819B81BC018DE00E9434
:1000F000670080EC90E0FC018081882F90E08072A6
:100100009927892BB1F386EC90E02981FC012083AB
:1001100080E090E00F900F900F90DF91CF910895C5
:10012000CF93DF93CDB7DEB781E890E02BE0FC0101
:10013000208388E890E02DE730E0FC0131832083C4
:100140008FE690E022E0FC01208384E890E0FC014F
:100150001182108280910E0190910F01A0911001E7
:10016000B091110180931D0190931E01A0931F0176
:10017000B09320018FE590E02FE530E0F901208178
:100180002068FC0120830000DF91CF910895CF9378
:10019000DF93CDB7DEB781E890E0FC01108200006C
:1001A000DF91CF9108950F931F93CF93DF931F9209
:1001B000CDB7DEB71982A6C08981282F30E0C901EA
:1001C000880F991F820F931F880F991F880F991FFF
:1001D000895D9E4FFC01208131814281538189815B
:1001E000682F70E0CB01880F991F860F971F880F2B
:1001F000991F880F991F8D5D9E4FFC018081918111
:10020000A281B381281739074A075B0708F449C060
:100210008981082F10E08981282F30E0C901880FDB
:10022000991F820F931F880F991F880F991F855D53
:100230009E4FFC01408151818981282F30E0C90106
:10024000880F991F820F931F880F991F880F991F7E
:100250008F5D9E4FFC0180819181FA0109959C017F
:10026000C801880F991F800F911F880F991F880F51
:10027000991F8F5D9E4FFC01318320838981282F38
:1002800030E0C901880F991F820F931F880F991FB3
:10029000880F991F895D9E4FFC0110821182128286
:1002A00013828981682F70E08981282F30E0C9018D
:1002B000880F991F820F931F880F991F880F991F0E
:1002C000895D9E4FFC0180819181A281B38121E0F3
:1002D00030E040E050E0280F391F4A1F5B1FCB0180
:1002E000880F991F860F971F880F991F880F991FD6
:1002F000895D9E4FFC012083318342835383898132
:100300008F5F89838981282F30E082E090E0281771
:10031000390708F451CF00000F90DF91CF911F9162
:100320000F9108951F920F9200905F000F92112479
:1003300000905B000F922F933F934F935F936F93C7
:100340007F938F939F93AF93BF93EF93FF93CF933D
:10035000DF93CDB7DEB780911D0190911E01A09172
:100360001F01B09120010197A109B10980931D01DE
:1003700090931E01A0931F01B093200180911D0155
:1003800090911E01A0911F01B0912001892B8A2B11
:100390008B2B91F40E94D30080910E0190910F015C
:1003A000A0911001B091110180931D0190931E0145
:1003B000A0931F01B09320010000DF91CF91FF9126
:1003C000EF91BF91AF919F918F917F916F915F91CD
:1003D0004F913F912F910F9000925B000F900092F0
:1003E0005F000F901F901895CF93DF9300D000D03F
:1003F000CDB7DEB769837A838B839C8389819A81A9
:10040000AB81BC8180930E0190930F01A0931001EA
:10041000B093110180910E0190910F01A0911001F4
:10042000B091110180931D0190931E01A0931F01B3
:10043000B093200100000F900F900F900F90DF916C
:10044000CF910895CF93DF9300D0CDB7DEB79A83D5
:10045000898380E290E0FC018081882F90E08170A8
:10046000992721E0892B09F020E0822F80933F011A
:1004700080E290E0FC0180818095827080933E0153
:1004800080E290E0FC0180818095837080933A0146
:1004900080E290E0FC018081809584708093390136
:1004A00089819A818230910509F44BC0833091058E
:1004B0002CF4009779F0019791F073C08430910586
:1004C00009F457C0843091050CF447C0059709F42E
:1004D0005CC067C081E090E09A83898365C08091A9
:1004E0003F01882329F082E090E09A8389835CC0F1
:1004F00080913E01882329F083E090E09A838983EC
:1005000053C080913A01882349F080913B018038A3
:1005100029F084E090E09A83898312C080913901A8
:10052000882349F080913B01813029F085E090E0FB
:100530009A83898305C081E090E09A83898334C0DF
:1005400033C080913F01882319F082E090E002C01F
:1005500081E090E09A83898327C080913E018823BF
:1005600019F083E090E002C081E090E09A838983F3
:100570001BC080913A01882319F084E090E002C00A
:1005800081E090E09A8389830FC0809139018823AC
:1005900019F085E090E002C081E090E09A838983C1
:1005A00003C01A821982000088E290E020913B018A
:1005B000FC0120838BE290E020914201FC0120832A
:1005C00089819A810F900F90DF91CF910895CF93F9
:1005D000DF9300D0CDB7DEB79A8389838091120173
:1005E00080933B01809114018093420189819A811B
:1005F0008130910551F082309105A1F0892BF9F4F9
:1006000081E090E09A8389831AC0809113018093DE
:100610003B01809115018093420182E090E09A8332
:1006200089830DC08091120180933B018091140158
:100630008093420181E090E09A838983000088E200
:1006400090E020913B01FC0120838BE290E020911F
:100650004201FC01208389819A810F900F90DF91E4
:10066000CF910895CF93DF931F92CDB7DEB781E28C
:1006700090E0FC01108282E290E02FEFFC012083E9
:1006800087E290E02FEFFC01208388E290E0FC01FC
:1006900010828AE290E02FEFFC0120838BE290E051
:1006A000FC01108219828981282F30E0C901880F4E
:1006B000991F820F931F880F991F880F991F8F5DB5
:1006C0009E4FFC01118210828981282F30E0C901E0
:1006D000880F991F820F931F880F991F880F991FEA
:1006E0009C012D5D3E4F84E690E0A0E0B0E0F90172
:1006F00080839183A283B3838981282F30E0C9014D
:10070000880F991F820F931F880F991F880F991FB9
:10071000895D9E4FFC0110821182128213828981B1
:10072000282F30E0C901880F991F820F931F880F6F
:10073000991F880F991F855D9E4F22E232E0FC01D0
:100740003183208389818F5F89838981282F30E0DD
:10075000C901880F991F820F931F880F991F880F57
:10076000991F8F5D9E4FFC01118210828981282F75
:1007700030E0C901880F991F820F931F880F991FBE
:10078000880F991F9C012D5D3E4F81E090E0A0E015
:10079000B0E0F90180839183A283B3838981282FFC
:1007A00030E0C901880F991F820F931F880F991F8E
:1007B000880F991F895D9E4FFC0110821182128261
:1007C00013828981282F30E0C901880F991F820F79
:1007D000931F880F991F880F991F855D9E4F27EEE5
:1007E00032E0FC013183208381E090E0A0E0B0E0C2
:1007F000BC01CD010E94F4010E949000FFCFF8944B
:02080000FFCF28
:10080200000000020000000067000000000001007C
:0C08120000003C24F5FB02000100000087
:00000001FF
