:100000000C9446000C9465000C9465000C946500FB
:100010000C9465000C9465000C9465000C946500CC
:100020000C9465000C9465000C9465000C946500BC
:100030000C9465000C94BF010C9465000C94650051
:100040000C9465000C9465000C9465000C9465009C
:100050000C9465000C9465000C9465000C9465008C
:100060000C9465000C9465000C9465000C9465007C
:100070000C9465000C9465000C9465000C9465006C
:100080000C9465000C9465000C94650011241FBE4F
:10009000CFEFD0E4DEBFCDBF11E0A0E0B1E0E6E8F5
:1000A000F5E000E00BBF02C007900D92A231B1074E
:1000B000D9F721E0A2E1B1E001C01D92A931B20758
:1000C000E1F70E949F020C94C1020C940000CF93B0
:1000D000DF931F92CDB7DEB7898389818130E1F04C
:1000E00081EC90E021EC30E0F90120812861FC01F5
:1000F000208382EC90E022EC30E0F9012081266040
:10010000FC01208384EC90E023E3FC01208385EC58
:1001100090E0FC0110821BC089EC90E029EC30E0FB
:10012000F90120812861FC0120838AEC90E02AEC0F
:1001300030E0F90120812660FC0120838CEC90E006
:1001400023E3FC0120838DEC90E0FC011082000091
:100150000F90DF91CF910895CF93DF931F92CDB78A
:10016000DEB789838981813031F080EC90E0FC0139
:100170008081807205C088EC90E0FC0180818072F3
:100180000F90DF91CF910895CF93DF931F92CDB75A
:10019000DEB789838981813031F080EC90E0FC0109
:1001A0008081807405C088EC90E0FC0180818074BF
:1001B0000F90DF91CF910895CF93DF931F92CDB72A
:1001C000DEB789838981813031F080EC90E0FC01D9
:1001D0008081807805C088EC90E0FC018081807887
:1001E0000F90DF91CF910895CF93DF931F92CDB7FA
:1001F000DEB7898389818130A1F006C086EC90E06A
:10020000FC0180818093180180EC90E0FC018081EA
:100210008823A4F30CC08EEC90E0FC0180818093D5
:10022000180188EC90E0FC0180818823A4F3000091
:100230000F90DF91CF910895CF93DF9300D0CDB78A
:10024000DEB789836A838A81813089F0000080EC7F
:1002500090E0FC018081882F90E080729927892BA3
:10026000B1F386EC90E02981FC01208310C00000EE
:1002700088EC90E0FC018081882F90E080729927C3
:10028000892BB1F38EEC90E02981FC0120830000E2
:100290000F900F90DF91CF910895CF93DF931F922E
:1002A000CDB7DEB789838981813061F0000080ECB1
:1002B00090E0FC0180818823D4F786EC90E0FC017B
:1002C00080810BC0000088EC90E0FC0180818823D5
:1002D000D4F78EEC90E0FC0180810F90DF91CF91FC
:1002E0000895CF93DF93CDB7DEB781E890E02BE0A0
:1002F000FC01208388E890E02DE730E0FC013183A9
:1003000020838FE690E022E0FC01208384E890E0E7
:10031000FC01118210828091000190910101A09155
:100320000201B09103018093130190931401A093F3
:100330001501B09316018FE590E02FE530E0F9014B
:1003400020812068FC0120830000DF91CF91089577
:10035000CF93DF93CDB7DEB781E890E0FC01108248
:100360000000DF91CF910895CF93DF93CDB7DEB733
:1003700081E0809312010000DF91CF9108951F92D8
:100380000F9200905F000F92112400905B000F927B
:100390002F933F934F935F936F937F938F939F938D
:1003A000AF93BF93EF93FF93CF93DF93CDB7DEB7B8
:1003B0008091130190911401A0911501B091160143
:1003C0000197A109B1098093130190931401A0939F
:1003D0001501B09316018091130190911401A09121
:1003E0001501B0911601892B8A2B8B2B91F40E9459
:1003F000B4018091000190910101A0910201B0919E
:1004000003018093130190931401A0931501B093FD
:1004100016010000DF91CF91FF91EF91BF91AF9155
:100420009F918F917F916F915F914F913F912F910C
:100430000F9000925B000F9000925F000F901F9052
:100440001895CF93DF9300D000D0CDB7DEB7698386
:100450007A838B839C8389819A81AB81BC818093D1
:10046000000190930101A0930201B09303018091D8
:10047000000190910101A0910201B09103018093CC
:10048000130190931401A0931501B093160100007D
:100490000F900F900F900F90DF91CF910895CF9311
:1004A000DF9300D01F92CDB7DEB789837B836A8349
:1004B00089818A3031F48A819B81BC018DE00E9460
:1004C0004F0280EC90E0FC018081882F90E08072E8
:1004D0009927892BB1F386EC90E02981FC012083D8
:1004E00080E090E00F900F900F90DF91CF910895F2
:1004F000CF93DF93CDB7DEB781E00E94AC008823B5
:10050000D1F082E290E020911701FC0120838091DC
:10051000170161E00E941C0101C0000081E00E94FF
:10052000C4008823D1F39091170181E0913009F440
:1005300080E0809317010000DF91CF910895CF9361
:10054000DF93CDB7DEB781E290E02FEFFC0120838F
:1005500082E290E0FC01108281E00E94670068EE78
:1005600073E080E090E00E9421020E94710100008F
:10057000809112018823E1F3109212010E94780207
:06058000F6CFF894FFCF56
:100586000100000000000002000000004F02000011
:02059600000063
:00000001FF
