:100000000C944D000C946C000C946C000C946C00DF
:100010000C946C000C946C000C946C000C946C00B0
:100020000C946C000C946C000C946C000C946C00A0
:100030000C946C000C946C000C946C000C946C0090
:100040000C946C000C946C000C946C000C946C0080
:100050000C946C000C946C000C946C000C946C0070
:100060000C946C000C946C000C946C000C946C0060
:100070000C946C000C946C000C946C000C946C0050
:100080000C946C000C946C000C946C009701A00113
:10009000F30141024F025D026B0211241FBECFEF3C
:1000A000D0E4DEBFCDBF11E0A0E0B1E0E6E7F8E0CC
:1000B00000E00BBF02C007900D92AE32B107D9F736
:1000C00021E0AEE2B1E001C01D92A833B207E1F732
:1000D0000E947D020C9439040C940000CF93DF93AE
:1000E00000D01F92CDB7DEB789837B836A83898175
:1000F0008A3031F48A819B81BC018DE00E946E00C0
:1001000080EC90E0FC018081882F90E0807299273C
:10011000892BB1F386EC90E02981FC01208380E0FB
:1001200090E00F900F900F90DF91CF9108950F9373
:100130001F93CF93DF9300D000D0CDB7DEB7698394
:100140007A838B839C8380912E0190912F01A091C3
:100150003001B09131019C01AD0169817A818B81BF
:100160009C810E94A502882309F477C020E030E03A
:10017000A90169817A818B819C810E94A5028823D3
:1001800051F481E990E021E930E0F9012081287003
:10019000FC01208309C081E990E021E930E0F90108
:1001A00020812360FC01208328E539E344E75FE3F5
:1001B00069817A818B819C810E94A502882344F405
:1001C00088E990E02FEF3FEFFC013183208334C0BA
:1001D00020E034E244EF56E469817A818B819C818E
:1001E0000E94C703181634F488E990E0FC011182DC
:1001F000108222C008E910E020E030E040E053E443
:1002000069817A818B819C810E94CC03DC01CB01C6
:100210009C01AD0160E074E284EF9AE40E94AA02BE
:10022000DC01CB01BC01CD010E941C03DC01CB0130
:100230000197F8019183808384E990E0FC011182A9
:10024000108289819A81AB81BC8180932E01909329
:100250002F01A0933001B093310100000F900F9057
:100260000F900F90DF91CF911F910F910895CF9331
:10027000DF93CDB7DEB780E990E020E4FC01208376
:1002800081E990E02BE0FC01208360E070E0CB018D
:100290000E9497000000DF91CF910895CF93DF93E4
:1002A000CDB7DEB780E990E0FC01108281E990E0F3
:1002B000FC0110820000DF91CF910895CF93DF936E
:1002C000CDB7DEB780E290E0FC018081882F90E01E
:1002D0008170992721E0892B09F020E0822F8093FB
:1002E000320180E290E0FC018081809582708093F1
:1002F000370180E290E0FC018081809584708093DA
:1003000036018091330190913401CC01A0E0B0E03E
:1003100040E050E026E030E0841B950B28173907B9
:1003200008F4E7C08A5B9F4FFC010C949C0210927A
:10033000350181E090E09093340180933301D9C07E
:1003400080913501882F90E0880F991F880F991FA1
:10035000825F9E4FFC0180819181A281B381BC01AB
:10036000CD010E94970080913201882361F060E006
:1003700070E0CB010E94970082E090E090933401FE
:1003800080933301B6C080913701882381F080913A
:100390003501873060F4809135018F5F809335019E
:1003A00083E090E090933401809333011BC08091EF
:1003B0003601882381F080913501882361F0809196
:1003C000350181508093350184E090E090933401B1
:1003D0008093330107C081E090E0909334018093D3
:1003E000330187C086C0809132018823D1F080918B
:1003F0003501882F90E0880F991F880F991F825F21
:100400009E4FFC0180819181A281B381BC01CD010D
:100410000E94970081E090E0909334018093330133
:1004200068C080913701882381F080913501873041
:1004300060F4809135018F5F8093350185E090E015
:1004400090933401809333011BC08091360188233F
:1004500081F080913501882361F0809135018150D0
:100460008093350186E090E09093340180933301CE
:1004700007C082E090E0909334018093330139C04B
:1004800038C080913701882319F083E090E002C0E2
:1004900081E090E090933401809333012AC08091F1
:1004A0003601882319F084E090E002C081E090E0FA
:1004B00090933401809333011CC0809137018823CD
:1004C00019F085E090E002C082E090E09093340162
:1004D000809333010EC080913601882319F086E0A5
:1004E00090E002C082E090E0909334018093330169
:1004F00000C00000DF91CF910895CF93DF93CDB777
:10050000DEB781E290E0FC01108282E290E02FEF02
:10051000FC01208384E290E02FEFFC01208385E240
:1005200090E0FC0110820E94370110923401109279
:1005300033010E945E01FDCFEE0FFF1F0024001C5F
:100540000BBE0790F691E02D09940E94520308F427
:1005500081E008950E94BE020C948D030E948603E0
:1005600058F00E947F0340F029F45F3F29F00C947B
:10057000760351110C94C1030C947C030E949E03DA
:1005800068F39923B1F3552391F3951B550BBB27C2
:10059000AA2762177307840738F09F5F5F4F220F07
:1005A000331F441FAA1FA9F335D00E2E3AF0E0E8FE
:1005B00032D091505040E695001CCAF72BD0FE2F48
:1005C00029D0660F771F881FBB1F261737074807DC
:1005D000AB07B0E809F0BB0B802DBF01FF27935894
:1005E0005F4F3AF09E3F510578F00C9476030C94DF
:1005F000C1035F3FE4F3983ED4F386957795679502
:10060000B795F7959F5FC9F7880F911D96958795C8
:1006100097F90895E1E0660F771F881FBB1F6217E7
:1006200073078407BA0720F0621B730B840BBA0BA5
:10063000EE1F88F7E09508950E9423036894B11196
:100640000C94C10308950E94A60388F09F5798F068
:10065000B92F9927B751B0F0E1F0660F771F881FC7
:10066000991F1AF0BA95C9F714C0B13091F00E94E1
:10067000C003B1E008950C94C003672F782F88273A
:10068000B85F39F0B93FCCF3869577956795B39508
:10069000D9F73EF490958095709561957F4F8F4F77
:1006A0009F4F0895990F0008550FAA0BE0E8FEEF41
:1006B00016161706E807F907C0F012161306E40726
:1006C000F50798F0621B730B840B950B39F40A261F
:1006D00061F0232B242B252B21F408950A2609F4FD
:1006E000A140A6958FEF811D811D089597F99F6701
:1006F00080E870E060E008959FEF80EC08950024AA
:100700000A941616170618060906089500240A9476
:1007100012161306140605060895092E0394000CFC
:1007200011F4882352F0BB0F40F4BF2B11F460FF8B
:1007300004C06F5F7F4F8F4F9F4F089557FD9058B4
:10074000440F551F59F05F3F71F04795880F97FB95
:10075000991F61F09F3F79F087950895121613064F
:100760001406551FF2CF4695F1DF08C0161617067E
:100770001806991FF1CF86957105610508940895B3
:10078000E894BB2766277727CB0197F908950E9445
:10079000520308F48FEF08950E94DF030C948D0339
:1007A0000E947F0338F00E94860320F0952311F009
:1007B0000C9476030C947C0311240C94C1030E94C6
:1007C0009E0370F3959FC1F3950F50E0551F629FF4
:1007D000F001729FBB27F00DB11D639FAA27F00D9A
:1007E000B11DAA1F649F6627B00DA11D661F829FC1
:1007F0002227B00DA11D621F739FB00DA11D621FA6
:10080000839FA00D611D221F749F3327A00D611DC2
:10081000231F849F600D211D822F762F6A2F1124A4
:100820009F5750409AF0F1F088234AF0EE0FFF1FD7
:10083000BB1F661F771F881F91505040A9F79E3F2E
:10084000510580F00C9476030C94C1035F3FE4F3F0
:10085000983ED4F3869577956795B795F795E79584
:100860009F5FC1F7FE2B880F911D9695879597F98D
:060870000895F894FFCF8B
:1008760000000002000000006E0000000000A4D08E
:1008860082437BD49243A4D0A443719DAE4300001F
:0E089600C4430000DC43A4F0F64300D002444B
:00000001FF
