:100000000C9446000C9465000C9465000C946500FB
:100010000C9465000C9465000C9465000C946500CC
:100020000C9465000C9465000C9465000C946500BC
:100030000C9465000C94B5000C9465000C9465005C
:100040000C9465000C9465000C9465000C9465009C
:100050000C9465000C9465000C9465000C9465008C
:100060000C9465000C9465000C9465000C9465007C
:100070000C9465000C9465000C9465000C9465006C
:100080000C9465000C9465000C94650011241FBE4F
:10009000CFEFD0E4DEBFCDBF11E0A0E0B1E0EEEAEB
:1000A000F8E000E00BBF02C007900D92A231B1074B
:1000B000D9F721E0A2E1B1E001C01D92A632B2075A
:1000C000E1F70E941D040C9455040C940000CF939A
:1000D000DF93CDB7DEB781E890E02BE0FC01208311
:1000E00088E890E02DE730E0FC01318320838FE643
:1000F00090E022E0FC01208384E890E0FC01118282
:1001000010828091000190910101A0910201B091B3
:1001100003018093130190931401A0931501B093F0
:1001200016018FE590E02FE530E0F901208120688D
:10013000FC0120830000DF91CF910895CF93DF93DE
:10014000CDB7DEB781E890E0FC0110820000DF91BE
:10015000CF910895CF93DF93CDB7DEB781E0809341
:1001600012010000DF91CF9108951F920F9200902D
:100170005F000F92112400905B000F922F933F932A
:100180004F935F936F937F938F939F93AF93BF939F
:10019000EF93FF93CF93DF93CDB7DEB78091130139
:1001A00090911401A0911501B09116010197A10938
:1001B000B1098093130190931401A0931501B0939A
:1001C00016018091130190911401A0911501B09135
:1001D0001601892B8A2B8B2B91F40E94AA00809107
:1001E000000190910101A0910201B091030180935F
:1001F000130190931401A0931501B0931601000010
:10020000DF91CF91FF91EF91BF91AF919F918F912E
:100210007F916F915F914F913F912F910F9000923D
:100220005B000F9000925F000F901F901895CF9386
:10023000DF9300D000D0CDB7DEB769837A838B839C
:100240009C8389819A81AB81BC81809300019093CA
:100250000101A0930201B0930301809100019091EC
:100260000101A0910201B0910301809313019093C9
:100270001401A0931501B093160100000F900F9088
:100280000F900F90DF91CF910895CF93DF9300D01F
:100290001F92CDB7DEB789837B836A8389818A30D9
:1002A00031F48A819B81BC018DE00E94450180EC84
:1002B00090E0FC018081882F90E080729927892B43
:1002C000B1F386EC90E02981FC01208380E090E08E
:1002D0000F900F900F90DF91CF910895CF93DF9300
:1002E00000D01F92CDB7DEB78B831A82198227C048
:1002F00088E290E028E0FC01208388E290E028E298
:1003000030E0F9012081422F2B81222F30E009803B
:1003100002C0359527950A94E2F72170242BFC0141
:10032000208388E290E028E230E0F9012081226019
:10033000FC01208389819A8101969A83898389812E
:100340009A810897ACF288E290E028E230E0F90167
:1003500020812460FC01208388E290E0FC0110826F
:1003600000000F900F900F90DF91CF910895CF93E1
:10037000DF93CDB7DEB780E290E0FC018081882F6B
:1003800090E08170992721E0892B09F020E0822FED
:1003900080931B0180E290E0FC0180818095827057
:1003A0008093250180912001909121018130910558
:1003B00081F08130910518F0029709F136C081E093
:1003C00080931E0181E090E09093210180932001B1
:1003D0002CC080911E01803861F480911E018695A9
:1003E00080931E0182E090E0909321018093200190
:1003F0001CC080911E01880F80931E0116C0809141
:100400001E01813061F480911E01880F80931E01CE
:1004100081E090E0909321018093200105C08091BC
:100420001E01869580931E01000080911E010E948E
:100430006E010000DF91CF910895CF93DF93CDB788
:10044000DEB7809122019091230181309105B1F0B6
:100450008130910520F0029709F44EC085C01092BA
:100460001E0188E080931F0181E08093240181E0D8
:1004700090E0909323018093220176C08091240123
:100480008830F9F480911F018130D9F480912401E2
:10049000982F9295907F80911F01890F80931E0164
:1004A0008091240186958093240180911F01880FFB
:1004B00080931F0182E090E09093230180932201BA
:1004C00053C080912401982F9295907F80911F01B5
:1004D000890F80931E0180912401880F809324014D
:1004E00080911F01869580931F0181E090E0909399
:1004F00023018093220138C0809124018130F9F4D6
:1005000080911F018830D9F480912401982F929511
:10051000907F80911F01890F80931E01809124019B
:10052000880F8093240180911F01869580931F017D
:1005300081E090E0909323018093220114C0809188
:100540002401982F9295907F80911F01890F8093AD
:100550001E018091240186958093240180911F01C2
:10056000880F80931F01000080911E010E946E0180
:100570000000DF91CF910895CF93DF93CDB7DEB721
:1005800080911801909119018230910511F1833009
:10059000910528F4009749F0019789F052C0833003
:1005A000910571F10497B1F14CC081E0809317017E
:1005B00081E090E0909319018093180142C081E09E
:1005C00080931E0182E090E09093190180931801BE
:1005D00038C080911701803819F481E080931701A9
:1005E00080911701880F80931701809117018093E4
:1005F0001E0183E090E0909319018093180121C0BF
:1006000080E880931E0184E090E09093190180932C
:10061000180117C080911701803819F481E0809388
:10062000170180911701880F80931701809117019E
:1006300080931E0181E090E090931901809318014E
:10064000000080911E010E946E010000DF91CF9199
:100650000895CF93DF93CDB7DEB780E290E0FC0141
:100660008081882F90E08170992721E0892B09F003
:1006700020E0822F80931B0180E290E0FC018081CA
:10068000809582708093250180911C0190911D01BD
:100690008230910509F459C08330910528F4009700
:1006A00079F00197B1F0C5C08430910509F48FC08D
:1006B0008430910508F462C0059709F4A1C0B9C05F
:1006C00010921A0181E090E090931D0180931C012B
:1006D000B0C080911B01882359F0809125018823A7
:1006E00039F085E090E090931D0180931C01A0C03B
:1006F00080911A01882339F482E090E090931D01E3
:1007000080931C0195C080911A01813039F483E0F7
:1007100090E090931D0180931C018AC080911A0182
:10072000823039F484E090E090931D0180931C01A5
:100730007FC080911A01843009F07AC085E090E092
:1007400090931D0180931C0173C00E94B70180919A
:100750001B01882361F080911A018F5F80931A0139
:1007600081E090E090931D0180931C0162C082E0C3
:1007700090E090931D0180931C015BC00E941D02BC
:1007800080911B01882361F080911A018F5F809313
:100790001A0181E090E090931D0180931C0149C0F3
:1007A00080912501882361F080911A018150809306
:1007B0001A0181E090E090931D0180931C0139C0E3
:1007C00083E090E090931D0180931C0132C00E9451
:1007D000BC0280912501882361F080911A0181502B
:1007E00080931A0181E090E090931D0180931C0199
:1007F00020C084E090E090931D0180931C0119C0FB
:1008000080E00E946E0184E080931A0180911B01B8
:10081000882339F080912501882319F080E090E049
:1008200002C085E090E090931D0180931C0101C0FF
:1008300000000000DF91CF910895CF93DF93CDB7F3
:10084000DEB781E290E0FC01108282E290E02FEFBF
:10085000FC01208387E290E02FEFFC01208388E2F7
:1008600090E0FC0110821092210110922001109260
:100870002301109222011092190110921801109276
:100880001D0110921C0164E670E080E090E00E947F
:1008900017010E9467000E94290300008091120145
:0E08A0008823E1F310921201F6CFF894FFCFF7
:1008AE0001000000000000020000000045010000F1
:0208BE00000038
:00000001FF
