:100000000C9446000C9465000C9465000C946500FB
:100010000C9465000C9465000C9465000C946500CC
:100020000C9465000C9465000C9465000C946500BC
:100030000C9465000C94B5000C9465000C9465005C
:100040000C9465000C9465000C9465000C9465009C
:100050000C9465000C9465000C9465000C9465008C
:100060000C9465000C9465000C9465000C9465007C
:100070000C9465000C9465000C9465000C9465006C
:100080000C9465000C9465000C94650011241FBE4F
:10009000CFEFD0E4DEBFCDBF11E0A0E0B1E0E8E5F6
:1000A000F5E000E00BBF02C007900D92A231B1074E
:1000B000D9F721E0A2E1B1E001C01D92AC31B20755
:1000C000E1F70E948D020C94AA020C940000CF93D9
:1000D000DF93CDB7DEB781E890E02BE0FC01208311
:1000E00088E890E02DE730E0FC01318320838FE643
:1000F00090E022E0FC01208384E890E0FC01118282
:1001000010828091000190910101A0910201B091B3
:1001100003018093130190931401A0931501B093F0
:1001200016018FE590E02FE530E0F901208120688D
:10013000FC0120830000DF91CF910895CF93DF93DE
:10014000CDB7DEB781E890E0FC0110820000DF91BE
:10015000CF910895CF93DF93CDB7DEB781E0809341
:1001600012010000DF91CF9108951F920F9200902D
:100170005F000F92112400905B000F922F933F932A
:100180004F935F936F937F938F939F93AF93BF939F
:10019000EF93FF93CF93DF93CDB7DEB78091130139
:1001A00090911401A0911501B09116010197A10938
:1001B000B1098093130190931401A0931501B0939A
:1001C00016018091130190911401A0911501B09135
:1001D0001601892B8A2B8B2B91F40E94AA00809107
:1001E000000190910101A0910201B091030180935F
:1001F000130190931401A0931501B0931601000010
:10020000DF91CF91FF91EF91BF91AF919F918F912E
:100210007F916F915F914F913F912F910F9000923D
:100220005B000F9000925F000F901F901895CF9386
:10023000DF9300D000D0CDB7DEB769837A838B839C
:100240009C8389819A81AB81BC81809300019093CA
:100250000101A0930201B0930301809100019091EC
:100260000101A0910201B0910301809313019093C9
:100270001401A0931501B093160100000F900F9088
:100280000F900F90DF91CF910895CF93DF9300D01F
:100290001F92CDB7DEB789837B836A8389818A30D9
:1002A00031F48A819B81BC018DE00E94450180EC84
:1002B00090E0FC018081882F90E080729927892B43
:1002C000B1F386EC90E02981FC01208380E090E08E
:1002D0000F900F900F90DF91CF910895CF93DF9300
:1002E00000D01F92CDB7DEB78B831A82198227C048
:1002F00088E290E028E0FC01208388E290E028E298
:1003000030E0F9012081422F2B81222F30E009803B
:1003100002C0359527950A94E2F72170242BFC0141
:10032000208388E290E028E230E0F9012081226019
:10033000FC01208389819A8101969A83898389812E
:100340009A810897ACF288E290E028E230E0F90167
:1003500020812460FC01208388E290E0FC0110826F
:1003600000000F900F900F90DF91CF910895CF93E1
:10037000DF93CDB7DEB780E290E0FC018081882F6B
:1003800090E08170992721E0892B09F020E0822FED
:100390008093170180E290E0FC018081809582705B
:1003A00080931B0180911801909119018230910571
:1003B00009F45BC08330910528F4009759F0019748
:1003C00099F0A3C08330910509F46EC0049709F435
:1003D0008AC09BC087E080931A0181E090E09093EF
:1003E00019018093180191C080911701882369F049
:1003F00080911B01882349F010921A0184E090E05B
:1004000090931901809318012FC0809117018823C0
:1004100081F080911A018F3F61F080911A018F5F06
:1004200080931A0182E090E0909319018093180163
:100430001BC080911B01882381F080911A018823C1
:1004400061F080911A01815080931A0183E090E05D
:10045000909319018093180107C081E090E0909378
:1004600019018093180151C050C080911701882351
:1004700069F080911B01882349F010921A0184E0F1
:1004800090E090931901809318013FC0809117016B
:10049000882319F082E090E002C081E090E0909320
:1004A00019018093180131C080911701882369F0E8
:1004B00080911B01882349F010921A0184E090E09A
:1004C000909319018093180120C080911B0188230B
:1004D00019F083E090E002C081E090E09093190170
:1004E0008093180112C080911701882339F0809100
:1004F0001B01882319F084E090E002C081E090E0C5
:100500009093190180931801000080911A010E94B4
:100510006E010000DF91CF910895CF93DF93CDB7A7
:10052000DEB781E290E0FC01108282E290E02FEFE2
:10053000FC01208387E290E02FEFFC01208388E21A
:1005400090E0FC01108210921901109218010E9493
:08055000B701FDCFF894FFCFC5
:10055800010000000000000200000000450100004A
:02056800000091
:00000001FF
