:100000000C9446000C9465000C9465000C946500FB
:100010000C9465000C9465000C9465000C946500CC
:100020000C9465000C9465000C9465000C946500BC
:100030000C9465000C9465000C9465000C946500AC
:100040000C9465000C9465000C9465000C9465009C
:100050000C9465000C9465000C9465000C9465008C
:100060000C9465000C9465000C9465000C9465007C
:100070000C9465000C9465000C9465000C9465006C
:100080000C9465000C9465000C94650011241FBE4F
:10009000CFEFD0E4DEBFCDBF11E0A0E0B1E0EEE0F5
:1000A000F3E000E00BBF02C007900D92AE30B10745
:1000B000D9F721E0AEE0B1E001C01D92A331B20753
:1000C000E1F70E9468010C9485010C940000CF9325
:1000D000DF9300D01F92CDB7DEB789837B836A831D
:1000E00089818A3031F48A819B81BC018DE00E9434
:1000F000670080EC90E0FC018081882F90E08072A6
:100100009927892BB1F386EC90E02981FC012083AB
:1001100080E090E00F900F900F90DF91CF910895C5
:10012000CF93DF93CDB7DEB780E290E0FC01808112
:10013000882F90E08170992721E0892B09F020E039
:10014000822F80930E0180E290E0FC0180818095F7
:1001500082708093120180910F0190911001823082
:10016000910509F45BC08330910528F4009759F09C
:10017000019799F0A3C08330910509F46EC00497EC
:1001800009F48AC09BC087E08093110181E090E070
:100190009093100180930F0191C080910E018823EC
:1001A00069F080911201882349F01092110184E0D6
:1001B00090E09093100180930F012FC080910E0169
:1001C000882381F080911101893061F080911101C3
:1001D0008F5F8093110182E090E0909310018093F3
:1001E0000F011BC080911201882381F080911101C1
:1001F000882361F08091110181508093110183E087
:1002000090E09093100180930F0107C081E090E08F
:100210009093100180930F0151C050C080910E0146
:10022000882369F080911201882349F0109211010E
:1002300084E090E09093100180930F013FC0809183
:100240000E01882319F082E090E002C081E090E086
:100250009093100180930F0131C080910E0188238B
:1002600069F080911201882349F01092110184E015
:1002700090E09093100180930F0120C080911201B3
:10028000882319F083E090E002C081E090E0909331
:10029000100180930F0112C080910E01882339F064
:1002A00080911201882319F084E090E002C081E07F
:1002B00090E09093100180930F01000088E290E09D
:1002C00020911101FC0120830000DF91CF9108955E
:1002D000CF93DF93CDB7DEB781E290E0FC011082CF
:1002E00082E290E02FEFFC01208387E290E02FEF85
:1002F000FC01208388E290E0FC0110821092100142
:0E03000010920F010E949000FDCFF894FFCFE5
:0E030E00000000020000000067000000000078
:00000001FF
