:100000000C9446000C945D000C945D000C945D0013
:100010000C945D000C945D000C945D000C945D00EC
:100020000C945D000C945D000C945D000C945D00DC
:100030000C945D000C945D000C945D000C945D00CC
:100040000C945D000C945D000C945D000C945D00BC
:100050000C945D000C945D000C945D000C945D00AC
:100060000C945D000C945D000C945D000C945D009C
:100070000C945D000C945D000C945D000C945D008C
:100080000C945D000C945D000C945D0011241FBE67
:10009000CFEFD0E4DEBFCDBF11E0A0E0B1E0E8EDEE
:1000A000F2E000E00BBF02C007900D92AE30B10746
:1000B000D9F70E9499000C946A010C940000CF9328
:1000C000DF9300D01F92CDB7DEB789837B836A832D
:1000D00089818A3031F48A819B81BC018DE00E9444
:1000E0005F0080EC90E0FC018081882F90E08072BE
:1000F0009927892BB1F386EC90E02981FC012083BC
:1001000080E090E00F900F900F90DF91CF910895D5
:10011000CF93DF93CDB7DEB78AE790E02AE730E0F0
:10012000F9012081206EFC0120830000DF91CF9136
:100130000895CF93DF93CDB7DEB727970FB6F89426
:10014000DEBF0FBECDBF81E290E0FC01108282E2F3
:1001500090E02FEFFC01208384E290E02FEFFC0180
:10016000208385E290E0FC0110820E94880088E7ED
:1001700090E0FC01808191819C838B8380EF90E0F3
:100180009E838D838D819E81969587959695879583
:10019000969587958F838F81282F30E08B819C8166
:1001A0008217930718F41A8219828EC08F81882FC4
:1001B00090E0880F991F9C018B819C818217930787
:1001C00028F481E090E09A8389837EC08F81282F74
:1001D00030E0C901880F991F820F931F9C018B810A
:1001E0009C818217930728F483E090E09A838983A7
:1001F0006BC08F81882F90E0880F991F880F991FFF
:100200009C018B819C818217930728F487E090E002
:100210009A83898359C08F81282F30E0C901880FC4
:10022000991F880F991F820F931F9C018B819C81BE
:100230008217930728F48FE090E09A83898344C063
:100240008F81282F30E0C901880F991F820F931FDB
:10025000880F991F9C018B819C818217930728F43A
:100260008FE190E09A8389832FC08F81282F30E01F
:10027000C901880F991F880F991F880F991F821B2A
:10028000930B9C018B819C818217930728F48FE349
:1002900090E09A83898318C08F81882F90E0880F1F
:1002A000991F880F991F880F991F9C018B819C8132
:1002B0008217930728F48FE790E09A83898304C01C
:1002C0008FEF90E09A83898385E290E02981FC0199
:0802D00020834DCFF894FFCF0D
:0E02D80000000002000000005F0000000000B7
:00000001FF
